:020000040000FA
:1000000018F09FE518F09FE518F09FE518F09FE5C0
:1000100018F09FE50000A0E1F0FF1FE518F09FE554
:1000200058000000400000008C2B00004800000039
:100030004C000000000000005000000054000000D0
:10004000FEFFFFEAFEFFFFEAFEFFFFEAFEFFFFEA18
:10005000FEFFFFEAFEFFFFEA94009FE5AA10A0E37F
:100060005520A0E32430A0E3043080E50130A0E374
:10007000003080E50C1080E50C2080E5083090E52C
:10008000013B13E2FCFFFF0A0330A0E3003080E5F0
:100090000C1080E50C2080E558009FE50410A0E3DB
:1000A000041080E50210A0E3001080E548009FE501
:1000B000DBF021E300D0A0E1080040E2D7F021E32B
:1000C00000D0A0E1080040E2D1F021E300D0A0E19F
:1000D000080040E2D2F021E300D0A0E1030C40E2AE
:1000E000D3F021E300D0A0E1030C40E20C009FE537
:1000F00010FF2FE180C01FE000C01FE03020004053
:1001000004010000000000EB2E0000EB2C008FE249
:10011000000C90E800A08AE000B08BE001704AE299
:100120000B005AE10000001A260000EB0F00BAE8AD
:1001300018E04FE2010013E303F0471013FF2FE133
:10014000342C0000542C0000102052E27800B0281B
:100150007800A128FBFFFF8A822EB0E13000B02892
:100160003000A12800409045004081451EFF2FE14E
:100170000030B0E30040B0E30050B0E30060B0E313
:10018000102052E27800A128FCFFFF8A822EB0E105
:100190003000A128003081451EFF2FE101C08FE211
:1001A0001CFF2FE11FB5059886460FBC009C02B0CE
:1001B0007047000001C08FE21CFF2FE130B475468C
:1001C000AE4630BC70470000320A00EB0210A0E1DE
:1001D000F1FFFFEB1CC09FE50FC08CE001001CE3AA
:1001E0000DE08F120FE0A0011CFF2FE101C08FE294
:1001F0001CFF2FE102F080FCBB0100007847C046E5
:1002000003002DE9EAFFFFEB0300BDE83F0A00EB26
:100210000C009FE50C109FE504209FE508309FE54A
:100220001EFF2FE1101A0040181D0040101A004058
:1002300086B009E001A800F0CEF900235A1E01A9FA
:100240006F48006801F081FEF4E786B0002417E0F3
:1002500000F08AFB0400002C12D001A969A000F074
:100260007BFA01A9200000F01FFB01A967A000F0A4
:100270009EFA00235A1E01A96148006801F065FE3C
:10028000E6E78EB088E00022D24309A95C48006806
:1002900001F070FF09A800F018FD5D480078002803
:1002A00001DD012000E000205A490978002901D130
:1002B000012100E0002108426BD05648007903007C
:1002C00002F034FD06620A041216396200F072FB75
:1002D00051A000F04FF95BE04E49C86800F078FB90
:1002E0004DA000F047F953E04CA000F043F94FE077
:1002F0004848C068012806D0022807D0032809D042
:1003000004280FD10AE000F055FB0FE00C2000F0AC
:100310005FFB0BE0182000F05BFB07E0242000F0FF
:1003200057FB03E040A000F025F9C046C0463AA0C4
:1003300000F020F92CE001A800F0FAFB68460079F3
:10034000002804D0012807D002280FD109E004A911
:1003500039A000F001FA0AE004A93BA000F0FCF982
:1003600005E004A93BA000F0F7F900E0C046C04654
:1003700004A9029800F098FA04A924A000F017FA42
:1003800004A800F0F7F803E027A000F0F3F8C04657
:1003900002E035A000F0EEF875E782B000221421EB
:1003A0000A2001F01FFD164908604B20C00100F033
:1003B00034F900F0CDFB00F0BCFA0020012103006D
:1003C00064220091019001002B4800F044FD0020C0
:1003D000012103006422009101900100274800F0F0
:1003E0003AFD0020012103006422009101900100E8
:1003F000234800F030FD01F0FEF8C046FEE70000A3
:1004000000000040627574746F6E20000A000000E6
:100410008A000040E80000406F6B0A0069642073A6
:100420006572766F0A000000756E6B6E6F776E6393
:100430006F6D6D616E640A00737461746520636131
:100440006C6C6962200000007374617465206964DB
:100450006C652000737461746520696E5F70726FE3
:100460006772657373200000756E6B6E6F776E63D5
:100470006F6D6D616E6400004B0200003102000080
:100480008302000000B51F210904384AD16103002E
:1004900002F04CFC0604090E13181D220121090468
:1004A000324A516118E001214904304A516113E098
:1004B000012189042D4A51610EE00121C9042B4A12
:1004C000516109E01F210904284AD16104E001219A
:1004D0000905264A5161C046C04608BC184701219B
:1004E00009048140214AD161704710B50400012CF4
:1004F00005D11F480068401C1D49086006E0002C1B
:1005000004D11B480068401E194908601849097841
:100510008807800FFFF7B6FF10BC08BC184700B56E
:100520000020FFF7E2FF08BC184700B50120FFF7E5
:10053000DCFF08BC18470D4880691F2109040843E7
:100540000A498861704709490969012212048240F9
:10055000114205D0012109048140044AD16104E01F
:10056000012109048140014A51617047008002E085
:10057000040000403EB504000D21019100210091CE
:10058000002509E0611900235A1E4448006801F063
:10059000DCFC681C05062D0E605D0028F2D10023EE
:1005A000421E69463D48006801F0CFFC00235A1EF8
:1005B00001A93A48006801F0C8FC0022D24302A910
:1005C0003648006801F0D6FD6846007A3449087064
:1005D0003EBC08BC184738B505000024621E6946B9
:1005E0003048006801F0C6FD0EE0142C05DA6846BC
:1005F00000782855601C0406240E0022D243694668
:100600002848006801F0B6FD684600780D28ECD156
:100610000020285538BC08BC184770B505000022DA
:100620000121142001F0DEFB1E4908600022012197
:100630001E2001F0D7FB194908602E0131001A482D
:1006400002F072FA0400194800685521084317495E
:1006500008601348007B83210843114908730C701C
:10066000240A0C710800007B802188430C49087320
:100670000800007903210843094908710C480D4915
:10068000486026200C4948600C4800694021084316
:100690000A49086170BC08BC184700000800004007
:1006A00000C000E00C000040C0E1E40000C002E037
:1006B000C006000000F1FFFF00F2FFFF00F0FFFFA7
:1006C0001F502DE90CD04DE27C009FE50840D0E59D
:1006D0000F0004E2040050E30900001A68009FE5DF
:1006E0000000D0E504008DE50030A0E30320A0E188
:1006F00004108DE254009FE5000090E5770900EBBF
:100700000000A0E10F0004E2020050E30900001A1B
:100710000020A0E308108DE234009FE5000090E582
:10072000710900EB010050E30200001A0800DDE54A
:1007300014109FE50000C1E50000A0E3D00F00E524
:100740000CD08DE21F50BDE804F05EE200C000E076
:100750000C000040080000400200002004E0135C90
:100760000B54431C1806000E135C002BF7D1135CCE
:100770000B54704710B402000B00002109E0505CDC
:100780005C5CA04202D0002010BC7047481C0106EF
:10079000090E505C002802D0585C0028EFD1505C54
:1007A0005C5CA04201D00020EEE70120ECE770B5D0
:1007B00006000C00002502E0681C05062D0E605D99
:1007C0000028F9D161193000FFF7C6FF70BC08BCE2
:1007D000184710B40B00002106E0445C9C4200D195
:1007E00042544C1C2106090E445C002CF5D110BC6F
:1007F000704730B4030030240C7078244C7000240F
:100800008C71002014E085001C00EC402207120FC0
:100810000A2A05DA1400303405252D1A4C5504E057
:100820001400373405252D1A4C55441C2006000EA3
:100830000428E8DB30BC704730B4030000200860B7
:100840001878302805D15878782802D1987800286F
:1008500002D1012030BC7047022420E01A5D062C32
:1008600001DB0120F6E7086800010860302A07DB99
:10087000392A05DC100030380D68281808600BE0B4
:10088000412A07DB462A05DC100037380D68281896
:10089000086001E00120DDE7601C0406240E185DFD
:1008A0000028DBD1C046D5E770B506000C00002556
:1008B00002E0681C05062D0E605D0028F9D1611963
:1008C0003000FFF796FF70BC08BC184700202D4988
:1008D00009681022114201D1012013E02949096859
:1008E0004022114201D102200CE026490968202251
:1008F000114201D1032005E02249096880221142FA
:1009000000D10420704782B00024002001900FE045
:1009100068460479FFF7DAFF019068460079A04243
:1009200006D000235A1E01A91748006801F00DFBEC
:10093000EEE71CB500200121030064220091019024
:100940000100124800F087FA00220121080001F09E
:1009500049FA0D4908600B488068F021884309492D
:1009600088601CBC08BC184708B50022D243694601
:100970000548006801F0FEFB6846007801B008BC3D
:1009800018470000008002E0100000400709000046
:10099000814880680121890288437F4988607047C7
:1009A0007D48006801218902084201D1002070477A
:1009B0000120FCE71CB50020009001900023421E9E
:1009C00069467648006801F0C0FA1CBC08BC1847AC
:1009D0001CB50400724903C96A4603C2019400238E
:1009E0005A1E69466D48006801F0AFFA1CBC08BC8D
:1009F00018471CB504006A49083103C96A4603C296
:100A0000019400235A1E69466448006801F09DFA6B
:100A10001CBC08BC18471CB504006149103103C94F
:100A20006A4603C2019400235A1E69465B48006867
:100A300001F08BFA1CBC08BC184786B00400584A69
:100A4000183207CA03AB07C30A2570E06846007B6B
:100A500000284FD0012802D0022858D126E00022D9
:100A6000D24301A94D48006801F084FB6846007933
:100A7000002806D0012808D002280CD0032813D162
:100A800010E00020694608730EE0022069460873F2
:100A90000298059008E0012069460873029800F06A
:100AA000D9FB01E0029DC046C04630E004A803C85F
:100AB000884208D2022069460873FFF736FD049881
:100AC000401C049012E004A803C8884208D9022000
:100AD00069460873FFF723FD0498401E049005E063
:100AE000012069460873002004900590280000F05A
:100AF000B1FB0CE0FFF754FF012802D1FFF715FD11
:100B000005E0012069460873002004900590C04666
:100B10000223002203A92348006801F016FA7D2071
:100B2000C000216802F000F8060000F093FB8DE79A
:100B30003EB504000022D24369461A48006801F01D
:100B4000FBFB684607C8230007C33EBC08BC184728
:100B50000EB5052002900020012102AB6422009115
:100B600001900100104800F076F9002208210F20C2
:100B700001F038F90949086000220C21012001F038
:100B800031F908490860FFF7D6FCFFF701FFFFF7CE
:100B900011FF03B008BC1847008002E014000040B9
:100BA000502D0000180000403B0A000070B4020005
:100BB000012400204D4D28700023C046D15C002C3C
:100BC00002D0012C39D116E0202901D1012411E0F5
:100BD000002901D1012000E00020444D2D78022D94
:100BE00001D1012500E00025284303D03F480078CB
:100BF00070BC704721E020290DD00024D0183B4D57
:100C00002D78ED003A4EAD19686038480078401CE8
:100C1000364D287010E0002901D1012000E00020AD
:100C2000324D2D78022D01D1012500E00025284309
:100C300002D02E480078DBE7C046C046581C0306A9
:100C40001B0EBBE770B506000D00002415E0162052
:100C50006043284A8018411C3000FFF78BFD0128B3
:100C600008D1162060432349085C2870002070BC1E
:100C700008BC1847601C0406240E052CE7DB012085
:100C8000F5E7F8B51A4C002518E0271D261D390098
:100C90006068FFF7D7FF002801D120700AE031001B
:100CA0006068FFF7C9FD002802D10120207001E033
:100CB000022020700834681C05062D0E0B480078B1
:100CC0008542E2DBF8BC08BC184710B504002000E0
:100CD000FFF76CFF05490870002220212000FFF774
:100CE00078FDFFF7CEFF10BC08BC18478A00004013
:100CF000E80000401C00004010B5002406E014216C
:100D00006143F94A881800F0D1FF641C042CF6D323
:100D1000F64800F0CBFFF64800F0C8FFF54800F0B9
:100D2000C5FFF54800F0C2FFF44800F0BFFFEF48F0
:100D3000F3490860EE48F349086010BC08BC184746
:100D400010B5040001F05FFCEF480068401CEE495C
:100D50000860EE480068002808D1EC4804600800EC
:100D6000006801280ED1FFF7C7FF0BE0E8480068D4
:100D7000002807D1E5480068C06AE16A884201D8C6
:100D8000E2480460E3480068401CE2490860E24928
:100D9000E06A0968884202D9DF49E06A08601422E3
:100DA000E16A5143D04A8818211D00F08FFF01F0FD
:100DB00035FCD7480068002801D0D448006810BC32
:100DC00008BC1847FFB581B00E000A9F0C9C216B30
:100DD0000398401E8000081800900098C008C000CA
:100DE0000090002E11D0002508E0715D2000343005
:100DF0004155705D002800D102E06D1C082DF4D330
:100E0000C04600213B20015502E00021342001555D
:100E1000042F00D30327E762201D00F054FF2000B9
:100E2000183000F050FF24610420C01BA0616462F0
:100E30000021E16340200155049A684603C801F08F
:100E40007BFB20600B98002801D00B98046005B054
:100E5000F0BC08BC1847FFB585B01700B80001F01A
:100E60002AFC0600002E0BD0442001F024FC0400D4
:100E7000002C01D0266304E0300001F07CFC00E08F
:100E80000024002C10D000220EA803C86B4613C308
:100E900003923A00089B05A803C8FFF793FF2000C0
:100EA000FFF74EFF012501E00025ED43280009B0C2
:100EB000F0BC08BC1847924800680068002801D1BF
:100EC000012000E00020002804D00020C043934906
:100ED000086005E08A480068C06800688F490860BB
:100EE000704710B50400206B01F045FC200001F0B4
:100EF00042FC10BC08BC184770B5050001F083FB2C
:100F0000002D02D18148006800E028000400201D67
:100F100000F003FFA06A002803D02000183000F082
:100F2000FCFE7C480068401C7A49086077480068ED
:100F3000844209D1211D704800F0C8FE784800683D
:100F4000401C7749086009E06F480068401E6E4900
:100F500008602000FFF7C5FFFFF7ADFF01F05EFB63
:100F60006B480068002805D068480068844201D1B9
:100F700001F0C2FE70BC08BC1847F8B50020009014
:100F80006848006800286AD167480068451C6648C0
:100F90000560002D0FD15A4807685A480068584923
:100FA00008605848076061480068401C5F49086055
:100FB000FFF781FFC0465948006885423DD3C046CF
:100FC0004F4800680068002801D1012000E000209F
:100FD000002804D00020C043504908602CE0484855
:100FE0000068C068C4686668B54202D24B480660B3
:100FF00022E0201D00F091FEA06A002803D020000E
:10100000183000F08AFE4449E06A0968884202D933
:101010004149E06A08601422E16A5143324A881863
:10102000211D00F053FE3949E06A0968C96A884207
:10103000C6D301200090C3E7C04634480068C06AA8
:101040001421484328490858012801D9012000905B
:1010500037480068002801D00120009004E035489E
:101060000068401C334908600098F8BC08BC184769
:1010700070B50024002601F0C6FA2A480068401E18
:101080002849086008000068002873D11E480068DD
:1010900000286FD022E01748C068C46820001830CC
:1010A00000F03BFE201D00F038FE1B49E06A096895
:1010B000884202D91849E06A08601422E16A514363
:1010C000094A8818211D00F001FE1049E06A0968EC
:1010D000C96A884202D301201549086005480068A2
:1010E000002829D1012028E0F800004048010040F4
:1010F0005C01004070010040840100409801004004
:10110000C4000040C8000040940000408C00004033
:10111000A0000040B00000409C000040B40000402F
:1011200090000040C000004098000040AC0000402B
:10113000A8000040A400004000200028ABD0002CF4
:1011400001D0FFF7B8FEFE480568002D0DD0C0465F
:10115000FFF713FF002802D00120FA4908606D1E36
:10116000002DF5D10020F6490860F64800680028F7
:1011700000D0012601F052FA300070BC08BC1847BC
:10118000F8B505000E00F0480768F0480068001D3B
:1011900000F0C3FD681C08D1002E06D0EB480168A2
:1011A000091DEB4800F092FD1AE07C19E748006841
:1011B0004460BC4207D2E5480168091DE548006863
:1011C00000F090FD0CE0E1480168091DE24800686C
:1011D00000F088FDE1480068844201D2DF480460E5
:1011E000F8BC08BC1847DE480068401CDC490860B1
:1011F0007047F3B581B0040000200090FFF7F3FFC3
:10120000D1480668216802980D182068B04207D9B5
:101210002068A8420BD9B54209D90120009006E008
:101220002068A84201D8B54201D90120009025606C
:101230000098002803D0A81B0021FFF7A1FFFFF7AB
:1012400017FF0700002F01D101F056FD0098FEBCEA
:1012500008BC184770B504000025002C08D0FFF723
:10126000C2FF00212000FFF78BFFFFF701FF050001
:10127000002D01D101F040FD70BC08BC184770B5CD
:10128000040001F0C0F9002C02D1B048006800E071
:1012900020000600F56A01F0C1F9280070BC08BC06
:1012A000184710B401000023002902D1A74C24687C
:1012B00000E00C002200D06A10BC7047FEB50700A9
:1012C0000D0000200090042D00D3032501F09BF9B0
:1012D000002F02D19D48006800E038000400E66A53
:1012E000AE423ED0B5420BD99848006884420DD03A
:1012F00096480068C06AA84208D80120009005E01E
:1013000092480068844201D101200090E06A019077
:10131000E562A069C00FC00702D10420401BA06194
:1013200061691422019850438E4A8018814201D18C
:10133000012000E00020002812D0201D00F0EDFC6C
:101340008949E06A0968884202D98749E06A0860E9
:101350001422E16A5143834A8818211D00F0B6FC2B
:10136000C04601F05BF9FEBC08BC18477C48006829
:10137000002803D001207349086027E0002071494C
:1013800008607948016800E0491E14204843754A06
:101390001058002801D1012000E000200028F3D1DE
:1013A00014224A436F4BD0184268526842600200D0
:1013B00008324368934202D14268526842604268F0
:1013C000D268624B1A6068480160C046704770B5C9
:1013D000050001F018F9002D02D15C48006800E01A
:1013E00028000400201D00F098FCA06A002803D00B
:1013F0002000183000F091FC211D554800F066FCDB
:10140000002009E021004031095C012903D10022BC
:10141000210040310A54401C0128F3DB01F0FEF8A2
:1014200052480068002805D001F0EDF8FFF743FDB1
:1014300001F0F4F845480068844212D14B48006836
:10144000002802D001F058FC0BE0414800684849F0
:101450000968884203D100203C49086001E0FFF799
:1014600085FF70BC08BC184710B4010000200A00BA
:10147000374C5369A34201D1012300E00023002B24
:1014800011D03C4C936AA34201D1012300E0002318
:10149000002B08D1936A002B01D1012300E0002327
:1014A000002B00D0012010BC704770B505002C0047
:1014B0002648006884421FD0002C1DD001F0A3F8FC
:1014C0002000FFF7D1FF002814D0201D00F025FCDC
:1014D0002549E06A0968884202D92349E06A086020
:1014E0001422E16A51431F4A8818211D00F0EEFBC7
:1014F0001648006801F092F870BC08BC1847F8B5AF
:10150000050000262C0000272000FFF7ADFF002873
:1015100043D01348006800283AD10C49E06A0968B2
:10152000C96A884203D30126012006490860201DAC
:1015300000F0F3FB0C49E06A096888421FD91BE000
:10154000A4000040A8000040980000408C0000402B
:1015500098010040C8000040C4000040B4000040B2
:10156000C0000040F80000409C000040A000004087
:101570009400004070010040FD49E06A08601422B8
:10158000E16A5143FB4A8818211D00F09FFB04E0EB
:1015900021001831F84800F099FB3000F8BC08BC75
:1015A000184710B516E001F02EF8F448C068C4687A
:1015B000201D00F0B2FBF2480068401EF0490860B0
:1015C000F0480068401EEF49086001F027F820004D
:1015D000FFF787FCEB4800680028E4D110BC08BC8A
:1015E0001847C046FFF7DDFFE24800680128F9D937
:1015F00001F082FBF6E71CB5E34800210B005A22FC
:1016000000910190E1A1E348FFF725FC0400012CC3
:101610000CD101F075FBA01EDF4908600120DF49F5
:1016200008600020DE49086000F0E3FFDD48006844
:101630001CBC08BC184710B501F062FB0020D7495C
:10164000086000F0DFFF10BC08BC184710B500F0C0
:10165000DAFFD348046800F0E1FF200010BC08BCAA
:1016600018470021CE4A10687047C5480068704787
:101670000100002902D1CC48006800E00800020007
:1016800010003430704770B50400FFF7ACFDC74858
:1016900000680019C5490860FFF7EAFC050028004A
:1016A00070BC08BC184770B505000C00BE48016846
:1016B0001831280000F016FB01212000FFF760FD23
:1016C00070BC08BC184770B506000C00150001205E
:1016D000C0072043B44909688861B34801681831DC
:1016E000300000F0F3FA01212800FFF749FD70BC3B
:1016F00008BC184770B50600F068C46820001830B0
:1017000000F00BFBAA480068002813D1201D00F050
:1017100004FB9749E06A0968884202D99449E06A63
:1017200008601422E16A5143924A8818211D00F092
:10173000CDFA04E0210018318F4800F0C7FA9A4929
:10174000E06A0968C96A884204D9012501209949DB
:10175000086000E00025280070BC08BC184770B580
:1017600005000E000120C00730432860EC68280007
:1017700000F0D3FA201D00F0D0FA7D49E06A096834
:10178000884202D97A49E06A08601422E16A51432A
:10179000784A8818211D00F099FA8349E06A09689F
:1017A000C96A884202D901208249086070BC08BC1D
:1017B000184710B5040000F026FF7F48006820603D
:1017C00077480068606000F029FF10BC08BC18472B
:1017D000794909680160724909684160704770B5CC
:1017E00006000C0000F00FFF6D4802687068131AC5
:1017F0002068401C01D1002519E06F493068096854
:10180000884206D07068904203D8012500202060ED
:101810000DE02068984207D92068C01A2060300087
:10182000FFF7D6FF002502E000202060012500F030
:10183000F5FE280070BC08BC184701205D4908600F
:10184000704759490968886957490968C96A042273
:10185000511A554A126891617047F8B504000F009B
:10186000160000F0D0FEA1004F4800683C30405800
:1018700000280BD101214C48006840300155002E52
:1018800004D03000FFF77CFC01F036FA00F0C6FE11
:1018900000F0B9FEA100444800683C304558002DD6
:1018A0000ED0002F06D00021A2003F4800683C3037
:1018B000815005E0681EA2003B4909683C31885010
:1018C0000021394800684030015500F0A7FE28008B
:1018D000F8BC08BC1847FFB581B004000F001D001C
:1018E00000F091FE304800684030005D022814D0BE
:1018F000A2002D4909683C3150180168B9430160C4
:10190000012129480068403001550A98002804D078
:101910000A98FFF735FC01F0EFF900F07FFE00F0C8
:1019200072FE002D05D0A1001F4800683C304058D1
:1019300028601D4800684030005D022801D0002664
:1019400009E0A200184909683C315018026803995F
:101950008A43026001260021134800684030015587
:1019600000F05CFE300005B0F0BC08BC1847000079
:101970009C000040F80000407001004084010040DD
:101980009400004090000040B800004049444C459D
:1019900000000000E3150000B4000040A00000407B
:1019A00098000040BC0000408C000040A4000040B3
:1019B000C0000040A8000040AC000040FFB583B06C
:1019C0000D0016001F0001200290039C00F01BFE7A
:1019D0000C98002805D0A90020003C3041580C98F4
:1019E000016020004030405D019002212000403025
:1019F00041553B0001F09AF90528040E181D2900F5
:101A0000A90020003C3040583043AA0021003C315E
:101A100088501BE0A90020003C304058401CAA0020
:101A200021003C31885011E0A90020003C30465094
:101A30000CE00198022804D0A90020003C30465058
:101A400001E00020029001E000E0C046C04601989D
:101A5000012814D1201D00F060F98E49E06A096860
:101A6000884202D98B49E06A08601422E16A514336
:101A7000894A8818211D00F029F98848006800F07B
:101A8000CDFD029807B0F0BC08BC1847FFB583B085
:101A90000D0016001F0001200190039C0020009003
:101AA0000C98002805D0A90020003C3041580C9823
:101AB000016020004030405D029002212000403053
:101AC00041553B0001F032F90528040E181D29008C
:101AD000A90020003C3040583043AA0021003C318E
:101AE00088501BE0A90020003C304058401CAA0050
:101AF00021003C31885011E0A90020003C304650C4
:101B00000CE00298022804D0A90020003C30465086
:101B100001E00020019001E000E0C046C0460298CC
:101B200001282BD15E480068002813D1201D00F049
:101B3000F4F85849E06A0968884202D95549E06AD0
:101B400008601422E16A5143534A8818211D00F0AD
:101B5000BDF804E021001831524800F0B7F84F49B1
:101B6000E06A0968C96A884208D90D98002802D03D
:101B700001210D98016001204B490860019807B0D0
:101B8000F0BC08BC1847FEB505000E0017002C007D
:101B90000020009020004030805D01900221200054
:101BA00040308155B100001F4058401CB200210058
:101BB0003C3188500198012829D139480068002813
:101BC00013D1201D00F0A9F83249E06A0968884263
:101BD00002D93049E06A08601422E16A51432E4A72
:101BE0008818211D00F072F804E0210018312D48FA
:101BF00000F06CF82949E06A0968C96A884206D988
:101C0000002F01D001203860012027490860FEBC68
:101C100008BC1847F8B506000C00002E02D11F487A
:101C2000006800E03000070000F0EDFC38004030B4
:101C3000005D022805D10021380040300155012502
:101C400000E0002500F0EAFC2800F8BC08BC1847BA
:101C5000F8B506000C001700002E02D10F480068EE
:101C600000E03000050000F0CEFCA10028003C3070
:101C700040580090A10028003C304058B843A200D2
:101C800029003C31885000F0C9FC0098F8BC08BC21
:101C9000184700009C000040F80000408C00004005
:101CA000C000004070010040A80000400100083161
:101CB00041600021C943816001000831C1600161B8
:101CC00000210160704700210161704742684A604D
:101CD00093688B60936859609160086103685B1C2E
:101CE0000360704710B402000B685C1C01D11069DE
:101CF00007E01000083000E04068446824689C4217
:101D0000FAD944684C604C68A160886041600A61FF
:101D10001468641C146010BC704701000A694B68A9
:101D200088689860081D09C858605068884201D1C9
:101D300088685060002008611068401E10601068BC
:101D4000704770B505000E002C0000F05CFC216CA3
:101D5000E06B484321684018A0600020A063206821
:101D60006060E06B401E216C484321684118E160CF
:101D70000021C9434420015545200155002E10D1B2
:101D80002069002801D1012000E00020002810D1A6
:101D900020001030FFF7AEFC00280AD000F0ACFFA6
:101DA00007E020001030FFF781FF20002430FFF70C
:101DB0007DFF00F033FC012070BC08BC1847F8B56B
:101DC00006000D001700069C002D01D1246000E0E4
:101DD0002760E663256401212000FFF7B2FFF8BC0D
:101DE00008BC1847FEB505000E0017002800704318
:101DF000029002990800483000F05DFC0400002CBD
:101E00000BD00194019C2000483001903B000094CD
:101E100031002800019AFFF7D2FF2000FEBC08BC69
:101E2000184770B5040000F0EEFB4520055714E09C
:101E3000606A002801D1012000E00020002808D1BC
:101E400020002430FFF756FC002803D0FFF7F5FCF4
:101E500000E004E0681E00060516002DE8DCC04620
:101E60000021C9434520015500F0D8FB00F0CBFB11
:101E70004420055714E02069002801D1012000E02A
:101E8000002000280BD120001030FFF733FC002881
:101E900001D0FFF7D2FC681E0006051600E001E045
:101EA000002DE8DCC0460021C9434420015500F064
:101EB000B5FB70BC08BC184770B5050000F0A3FB6B
:101EC000A86BE96B884201D1012400E0002400F0F6
:101ED000A5FB200070BC08BC1847F8B504000F0033
:101EE000150000200090A66B206C002827D0002D44
:101EF0000FD13900226C606800F06CFC216C6068C6
:101F000040186060A1686068884218D320686060EB
:101F100015E03900226CE06800F05CFC216CE068A0
:101F2000411AE1602168E068884203D2216CA06810
:101F3000411AE160022D02D1002E00D0761E701CE5
:101F4000A0630098F8BC08BC1847FFB583B0070031
:101F50001D00002002903C00C04600F054FBA06B26
:101F6000E16B884201D3022D21D12A00200004997F
:101F7000FFF7B3FF0600606A002801D1012000E0EE
:101F80000020002808D120002430FFF7B3FB0028F0
:101F900006D000F0B1FE03E0002E01D000F0ACFE50
:101FA00000F03CFB012007B0F0BC08BC18470598C6
:101FB000002803D100F032FB0020F4E7029800284B
:101FC00004D16846FFF704FC0120029000F026FBD4
:101FD000FFF709F900F017FB44200157491C00D115
:101FE000015545200157491C00D1015500F016FB51
:101FF00005A96846FFF7F3FB002819D12000FFF779
:102000005BFF00280ED0200010300599FFF74BFB36
:102010002000FFF706FFFFF72BF800289DD100F006
:102020006BFE9AE72000FFF7FCFEFFF721F894E72C
:102030002000FFF7F6FEFFF71BF80020B3E7FFB51F
:1020400085B0050016001F002C0000200390A06B37
:10205000E16B884201D3022F28D14520015702911C
:10206000A06B01903A0020000699FFF736FF029816
:10207000401C12D1606A002801D1012000E000203C
:10208000002809D120002430FFF734FB002803D0BA
:10209000002E01D00120306005E00298401C0106AE
:1020A0000916452001550120049001E0002004900C
:1020B000049809B0F0BC08BC1847FEB505000E0036
:1020C0002C0000200290A06B0190E16B01988142EE
:1020D00023D94520015700910198401CA063009826
:1020E000401C12D1606A002801D1012000E00020CC
:1020F000002810D120002430FFF7FCFA00280AD075
:10210000002E08D00120306005E00098401C010638
:10211000091645200155012700E000273800FEBCC4
:1021200008BC184770B5050000F06DFAA86B0028D0
:1021300001D1012400E0002400F070FA200070BCFE
:1021400008BC184770B504000D00206C00280ED0A4
:10215000216CE0684118E160A168E068884201D321
:102160002168E1602800226CE16800F033FB70BC5C
:1021700008BC1847F7B582B0050000272C00C04600
:1021800000F041FAA66B002E1CD020000399FFF747
:10219000D9FF701EA0632069002801D1012000E052
:1021A0000020002807D120001030FFF7A3FA0028F4
:1021B00001D000F0A1FD00F031FA012005B0F0BC23
:1021C00008BC18470498002803D100F027FA002023
:1021D000F4E7002F03D16846FFF7FAFA012700F071
:1021E0001DFAFFF700F800F00EFA44200157491CD1
:1021F00000D1015545200157491C00D1015500F07F
:102200000DFA04A96846FFF7EAFA002819D1200060
:10221000FFF788FF00280ED0200024300499FFF734
:1022200042FA2000FFF7FDFDFEF722FF0028A7D1AC
:1022300000F062FDA4E72000FFF7F3FDFEF718FFB2
:102240009EE72000FFF7EDFDFEF712FF2000FFF7ED
:1022500069FF002894D00020B0E7F3B583B00500F3
:1022600000272C00C04600F0CEF9A66B002E18D037
:10227000701EA0632069002801D1012000E0002029
:10228000002807D120001030FFF734FA002801D0D1
:1022900000F032FD00F0C2F9012005B0F0BC08BC2E
:1022A00018470498002803D100F0B8F90020F4E79B
:1022B000002F03D101A8FFF78BFA012700F0AEF938
:1022C000FEF791FF00F09FF944200157491C00D10F
:1022D000015545200157491C00D1015500F09EF9D8
:1022E00004A901A8FFF77BFA002819D12000FFF705
:1022F00019FF00280ED0200024300499FFF7D3F9ED
:102300002000FFF78EFDFEF7B3FE0028ABD100F0F2
:10231000F3FCA8E72000FFF784FDFEF7A9FEA2E783
:102320002000FFF77EFDFEF7A3FE2000FFF7FAFE78
:10233000002898D00020B0E7F7B584B0050000274A
:102340002C00C04600F05FF9A06B019001980028B6
:102350001CD0E66820000599FFF7F4FEE660606A8D
:10236000002801D1012000E00020002807D1200032
:102370002430FFF7BFF9002801D000F0BDFC00F0C9
:102380004DF9012007B0F0BC08BC1847069800289A
:1023900003D100F043F90020F4E7002F03D102A895
:1023A000FFF716FA012700F039F9FEF71CFF00F0DD
:1023B0002AF944200157491C00D1015545200157F5
:1023C000491C00D1015500F029F906A902A8FFF720
:1023D00006FA002819D12000FFF7A4FE00280ED02D
:1023E000200024300699FFF75EF92000FFF719FD61
:1023F000FEF73EFE0028A5D100F07EFCA2E72000FB
:10240000FFF70FFDFEF734FE9CE72000FFF709FD04
:10241000FEF72EFE2000FFF785FE002892D0002058
:10242000B0E7F7B584B0050016002C00002003903B
:10243000A06B02900298002827D0442001570191F8
:1024400020000599FFF77EFE0298401EA0630198C8
:10245000401C12D12069002801D1012000E0002099
:10246000002810D120001030FFF744F900280AD0CE
:10247000002E08D00120306005E00198401C0106C4
:10248000091644200155012700E00027380007B055
:10249000F0BC08BC1847F3B581B005002C00002043
:1024A0000090A06B002807D0E76820000299FFF792
:1024B00049FEE760012600E000263000FEBC08BCB3
:1024C000184770B5040000F09EF8A56B00F0A6F860
:1024D000280070BC08BC184770B50400250000F047
:1024E00092F8A96BE86B461A00F098F8300070BCBF
:1024F00008BC184701000A00906B704770B50400D3
:102500002500280000F037F970BC08BC184701000E
:102510000A00936B002B01D1012000E000207047DE
:1025200010B401000A00936BD46BA34201D10120C7
:1025300000E0002010BC704730B40300001F0C1DE9
:102540000460001F3F4C0460001F0360001F3E4CEE
:102550000460001F3D4C0460001F3D4C0460001FE0
:102560003C4C0460001F3C4C0460001F3B4C04606A
:10257000001F3B4C0460001F3A4C0460001F3A4CA3
:102580000460001F394C0460001F394C0460001FB8
:1025900064100460001F0260001F1F240460CC0749
:1025A000E40F03D0202504682C430460001F00249E
:1025B000046030BC704700212E4AD1602E481100C3
:1025C0008861032151615114C968102291432B4A3B
:1025D000D1601100096910221143284A116128496C
:1025E000284A11602421284A11600121214A5160A2
:1025F000704710B5FFF7DFFF00F0AAFA002010BC0B
:1026000008BC1847704710B500F07AFB1F480068F7
:10261000401C1E49086010BC08BC184710B51B4878
:10262000006800280AD019480068401E1749086051
:1026300008000068002801D100F06EFB10BC08BC47
:1026400018470000AAAAAAAA1212121211111111F7
:1026500010101010090909090808080807070707DA
:102660000606060605050505040404040303030322
:1026700002020202004000E0983A000000F0FFFF72
:10268000182C000000F1FFFF00F2FFFFCC0000401B
:102690004A4AD008C0004A4A10600022484B5A609B
:1026A000484A494B5A6000221A600100454A4A6074
:1026B0001A000A607047F8B5040000200090FEF789
:1026C00092FD42480068002804D1FFF7E1FF012095
:1026D0003E490860002C12D020000830A0420ED9DC
:1026E00008346007400F0821081A0019A04204D9D5
:1026F0006007400F081A041902E0002400E00024DB
:10270000002C32D03248006884422ED82C4F38003A
:10271000056801E02F002D686868A04202D2286891
:102720000028F7D1284885421FD03868083000902B
:10273000286838606868001B102810D92E1968684E
:10274000001B70606C6071681D4800E000680268E2
:1027500052688A42FAD3026832600660C0461C4959
:1027600068680968081A1A490860FEF781FC009831
:10277000F8BC08BC184770B506003500002E16D00E
:10278000083D2C00FEF72FFD61680D4800E0006851
:10279000026852688A42FAD30268226004600C49D7
:1027A0006068096840180A490860FEF761FC70BC5F
:1027B00008BC18470648006870477047B4010040DD
:1027C000D8000040F8170000E0000040D4000040AE
:1027D000D00000407847C046030052E32A00009A28
:1027E00003C010E20800000A0130D1E402005CE3FB
:1027F0000C2082E001C0D1940130C0E40130D1341A
:1028000001C0C094042042E20130C034033011E220
:102810008700000A042052E21B00003A03C031E79F
:10282000020053E30800000A0F00008A2C34A0E1E4
:1028300004C0B1E5042052E20C3C83E1043080E4A2
:10284000F9FFFF2A011081E20F0000EA2C38A0E115
:1028500004C0B1E5042052E20C3883E1043080E486
:10286000F9FFFF2A021081E2070000EA2C3CA0E1F8
:1028700004C0B1E5042052E20C3483E1043080E46A
:10288000F9FFFF2A031081E20000A0E1822FB0E1EE
:102890000130D12401C0D1240120D1440130C02411
:1028A00001C0C0240120C0441EFF2FE1013090E18F
:1028B0002100004A0020B0E3A03071E01A00003A85
:1028C000203271E00F00003A203471E00100003A3C
:1028D00000C0A0E3200000EAA03371E081034020A3
:1028E0000220B2E0203371E0010340200220B2E078
:1028F000A03271E0810240200220B2E0203271E07B
:10290000010240200220B2E0A03171E081014020AC
:102910000220B2E0203171E0010140200220B2E04B
:10292000A03071E0810040200220B2E0011050E0B0
:102930000010A0310200A2E01EFF2FE1022111E2EF
:102940000010614240C032E000006022203271E09D
:102950001D00003A203471E00F00003A0113A0E19D
:10296000203471E03F2382E30B00003A0113A0E121
:10297000203471E03F2682E30700003A0113A0E112
:10298000203471E03F2982E30113A0213F2C8223F0
:10299000003071E21D00002A2113A021A03371E054
:1029A000810340200220B2E0203371E00103402087
:1029B0000220B2E0A03271E0810240200220B2E0A9
:1029C000203271E0010240200220B2E0A03171E02B
:1029D000810140200220B2E0203171E0010140205D
:1029E0000220B2E0EBFFFF2AA03071E0810040201E
:1029F0000220B2E0011050E00010A0310200A2E07D
:102A0000CCCFB0E100006042001061221EFF2FE138
:102A1000CCCFB0E10000604201402DE90000B0E3FE
:102A20000000A0E10240BDE81EFF2FE170477047A3
:102A30007047000010402DE9202052E20500003AC6
:102A40001850B1E8202052E21850A0E81850B1E820
:102A50001850A0E8F9FFFF2A02CEB0E11850B128C3
:102A60001850A0281800B1481800A0481040BDE830
:102A700002CFB0E104309124043080241EFF2F01E6
:102A8000822FB0E1B230D1200120D144B230C02039
:102A90000120C0441EFF2FE10E50A0E1180000EB02
:102AA00005E0A0E10050B0E10D10A0E10A30A0E186
:102AB0000700C0E300D0A0E160D08DE220402DE906
:102AC000D2F5FFEB2040BDE80060A0E30070A0E37A
:102AD0000080A0E300B0A0E30710C1E305C0A0E1BF
:102AE000C009ACE8C009ACE8C009ACE8C009ACE872
:102AF00001D0A0E11EFF2FE10400C046C046200027
:102B0000FDF77CFB00009FE51EFF2FE1AC190040A4
:102B100001C08FE21CFF2FE101491820ABDFFEE767
:102B2000260002001EFF2FE17847C0460020B0E3D8
:102B3000203171E079FFFF3AA03271E06EFFFF3A79
:102B4000203471E063FFFF3A00C0A0E382FFFFEA98
:102B50007847C0466C019FE5000090E500E090E5F5
:102B600064019FE50200BEE8001080E50100BEE8B8
:102B700000F06FE1FF7FDEE80000A0E13CE09EE5B1
:102B800004F05EE2000000EF1EFF2FE104E08EE2A1
:102B900001002DE900204DE90000A0E104D04DE244
:102BA0000100BDE8004020E900E0A0E10100BDE82F
:102BB000FF7F4EE90000A0E13CE04EE200004FE163
:102BC00001002EE900019FE5000090E501002EE9DB
:102BD000F0009FE5001090E500E081E5EC009FE546
:102BE0000FE0A0E110FF2FE1D8009FE5000090E585
:102BF00000E090E5D0009FE50200BEE8001080E50F
:102C00000100BEE800F06FE1FF7FDEE80000A0E118
:102C10003CE09EE504F05EE201002DE900204DE974
:102C20000000A0E104D04DE20100BDE8004020E931
:102C300000E0A0E10100BDE8FF7F4EE90000A0E157
:102C40003CE04EE200004FE101002EE978009FE5F4
:102C5000000090E501002EE968009FE5001090E576
:102C600000E081E568009FE50FE0A0E110FF2FE1A3
:102C7000000050E30200000A50009FE50FE0A0E1D1
:102C800010FF2FE10100A0E348109FE5000081E55F
:102C900044009FE5000080E528009FE5000090E5E6
:102CA00000E090E520009FE50200BEE8001080E50E
:102CB0000100BEE800F06FE1FF7FDEE80000A0E168
:102CC0003CE09EE504F05EE28C000040CC00004059
:102CD0006D1300007B0F0000004000E030F0FFFFAC
:102CE00000C09FE51CFF2FE13F20000000C09FE5D2
:102CF0001CFF2FE1232400007847C046A0FFFFEA15
:102D00007847C04600000FE1801080E301F021E128
:102D1000800000E21EFF2FE17847C04600000FE16F
:102D20008000C0E300F021E11EFF2FE17847C0469C
:102D300001C05EE50C0053E10100003A0C30DEE713
:102D4000000000EA0330DEE783C08EE01CFF2FE1C5
:102D50000100000000000000020000000000000070
:102D6000030000000000000001000000000000005F
:102D700000000000942D000000000040E80000006A
:102D8000480100007C2E0000E8000040481F0000C1
:102D900070010000000000000000000000000000C2
:102DA0000000000000000000000000000000000023
:102DB0000263616C6C6962000000000000000000AA
:102DC00000000000000001676F746F000000000049
:102DD0000000000000000000000000000369640023
:102DE00000000000000000000000000000000000E3
:102DF000000004627574746F6E0000000000000033
:102E0000000000000000000005737461746500009C
:102E100000000000000000000000000000000000B2
:102E200000000000000000000000000000000000A2
:102E30000000000000000000000000000000000092
:102E40000000000000000000000000000000000082
:102E5000030000000000000000000000000000006F
:102E60000F270000F817000000000000000000001D
:0C2E700000000000000000000000000056
:0400000500000104F2
:00000001FF
