:020000040000FA
:1000000018F09FE518F09FE518F09FE518F09FE5C0
:1000100018F09FE50000A0E1F0FF1FE518F09FE554
:100020005800000040000000E023000048000000ED
:100030004C000000000000005000000054000000D0
:10004000FEFFFFEAFEFFFFEAFEFFFFEAFEFFFFEA18
:10005000FEFFFFEAFEFFFFEA94009FE5AA10A0E37F
:100060005520A0E32430A0E3043080E50130A0E374
:10007000003080E50C1080E50C2080E5083090E52C
:10008000013B13E2FCFFFF0A0330A0E3003080E5F0
:100090000C1080E50C2080E558009FE50410A0E3DB
:1000A000041080E50210A0E3001080E548009FE501
:1000B000DBF021E300D0A0E1080040E2D7F021E32B
:1000C00000D0A0E1080040E2D1F021E300D0A0E19F
:1000D000080040E2D2F021E300D0A0E1030C40E2AE
:1000E000D3F021E300D0A0E1030C40E20C009FE537
:1000F00010FF2FE180C01FE000C01FE0A01F0040E4
:1001000004010000000000EB2E0000EB2C008FE249
:10011000000C90E800A08AE000B08BE001704AE299
:100120000B005AE10000001A260000EB0F00BAE8AD
:1001300018E04FE2010013E303F0471013FF2FE133
:1001400084240000A4240000102052E27800B0288B
:100150007800A128FBFFFF8A822EB0E13000B02892
:100160003000A12800409045004081451EFF2FE14E
:100170000030B0E30040B0E30050B0E30060B0E313
:10018000102052E27800A128FCFFFF8A822EB0E105
:100190003000A128003081451EFF2FE101C08FE211
:1001A0001CFF2FE11FB5059886460FBC009C02B0CE
:1001B0007047000001C08FE21CFF2FE130B475468C
:1001C000AE4630BC70470000470800EB0210A0E1CB
:1001D000F1FFFFEB1CC09FE50FC08CE001001CE3AA
:1001E0000DE08F120FE0A0011CFF2FE101C08FE294
:1001F0001CFF2FE102F0AAF87B0000007847C04600
:1002000003002DE9EAFFFFEB0300BDE8540800EB13
:100210000C009FE50C109FE504209FE508309FE54A
:100220001EFF2FE180190040881C0040801900400B
:1002300086B01422134901A801F060FF0CE0FF20F2
:10024000F53000F02BFC01A800F098F801A800F0B0
:1002500095F801A800F092F8F1E782B000F06FF88D
:100260004B20C00100F0DDF80020012103008022B6
:10027000009101900100044800F027FA00F0E3FD2E
:10028000C046FEE7B02500003102000000B51F2186
:100290000904384AD161030002F078F90604090E16
:1002A00013181D2201210904324A516118E001216D
:1002B0004904304A516113E0012189042D4A5161FA
:1002C0000EE00121C9042B4A516109E01F210904F4
:1002D000284AD16104E001210905264A5161C0463E
:1002E000C04608BC1847012109048140214AD16158
:1002F000704710B50400012C05D11F480068401C50
:100300001D49086006E0002C04D11B480068401E0F
:1003100019490860184909788807800FFFF7B6FF68
:1003200010BC08BC184700B50020FFF7E2FF08BC6E
:10033000184700B50120FFF7DCFF08BC18470D483F
:1003400080691F21090408430A49886170470949E7
:100350000969012212048240114205D001210904D9
:100360008140044AD16104E0012109048140014A2D
:1003700051617047008002E0000000403EB504007B
:100380000D21019100210091002509E06119002350
:100390005A1E4448006801F002FA681C05062D0E3A
:1003A000605D0028F2D10023421E69463D48006886
:1003B00001F0F5F900235A1E01A93A48006801F03E
:1003C000EEF90022D24302A93648006801F0F2FAA1
:1003D0006846007A344908703EBC08BC184738B5F6
:1003E00005000024621E69463048006801F0E2FA08
:1003F0000EE00C2C05DA684600782855601C0406CF
:10040000240E0022D24369462848006801F0D2FA3F
:10041000684600780D28ECD10020285538BC08BC6F
:10042000184770B50500002201210C2001F004F9E5
:100430001E49086000220121142001F0FDF819492D
:1004400008602E0131001A4801F098FF0400194895
:10045000006855210843174908601348007B832131
:100460000843114908730C70240A0C710800007BC2
:10047000802188430C490873080000790321084350
:10048000094908710C480D49486026200C4948600C
:100490000C480069402108430A49086170BC08BC47
:1004A000184700000400004000C000E008000040C1
:1004B000C0E1E40000C002E0C804000000F1FFFF5A
:1004C00000F2FFFF00F0FFFF1F502DE90CD04DE2BE
:1004D0007C009FE50840D0E50F0004E2040050E3F3
:1004E0000900001A68009FE50000D0E504008DE5D2
:1004F0000030A0E30320A0E104108DE254009FE54A
:10050000000090E50A0800EB0000A0E10F0004E203
:10051000020050E30900001A0020A0E308108DE259
:1005200034009FE5000090E5040800EB010050E373
:100530000200001A0800DDE514109FE50000C1E587
:100540000000A0E3D00F00E50CD08DE21F50BDE805
:1005500004F05EE200C000E008000040040000403B
:1005600010B5002406E014216143FE4A881800F00B
:10057000CBFF641C042CF6D3FB4800F0C5FFFB48FE
:1005800000F0C2FFFA4800F0BFFFFA4800F0BCFFDD
:10059000F94800F0B9FFF448F8490860F348F84911
:1005A000086010BC08BC184710B5040001F03FFCFF
:1005B000F4480068401CF3490860F34800680028CC
:1005C00008D1F14804600800006801280ED1FFF747
:1005D000C7FF0BE0ED480068002807D1EA48006833
:1005E000C06AE16A884201D8E7480460E8480068C8
:1005F000401CE7490860E749E06A0968884202D977
:10060000E449E06A08601422E16A5143D54A881837
:10061000211D00F089FF01F015FCDC48006800286E
:1006200007D0D9480068C06AE16A884201D201F067
:100630008DFF10BC08BC1847FFB581B00E000A9FA3
:100640000C9C216B0398401E8000081800900098B5
:10065000C008C0000090002E11D0002508E0715D98
:10066000200034304155705D002800D102E06D1C3F
:10067000082DF4D3C04600213B20015502E00021A3
:1006800034200155042F00D30327E762201D00F01A
:1006900048FF2000183000F044FF24610420C01BF4
:1006A000A06164620021E16340200155049A68461C
:1006B00003C801F055FB20600B98002801D00B986F
:1006C000046005B0F0BC08BC1847FFB585B0170042
:1006D000B80001F018FC0600002E0BD0442001F0F9
:1006E00012FC0400002C01D0266304E0300001F06D
:1006F0006AFC00E00024002C10D000220EA803C8E1
:100700006B4613C303923A00089B05A803C8FFF782
:1007100093FF2000FFF748FF012501E00025ED438E
:10072000280009B0F0BC08BC18479448006800686D
:10073000002801D1012000E00020002804D0002082
:10074000C0439549086005E08C480068C0680068AF
:1007500091490860704710B50400206B01F033FC2C
:10076000200001F030FC10BC08BC184770B5050033
:1007700001F05DFB002D02D18348006800E02800F5
:100780000400201D00F0F7FEA06A002803D020001E
:10079000183000F0F0FE7E480068401C7C4908607C
:1007A00079480068844209D1211D724800F0BCFEDE
:1007B0007A480068401C7949086009E0714800687F
:1007C000401E704908602000FFF7C5FFFFF7ADFF2E
:1007D00001F038FB6D480068002805D06A480068C1
:1007E000844201D101F0B2FE70BC08BC1847F8B5D4
:1007F000002000906A480068002851D169480068CC
:10080000451C68480560002D0FD15C4807685C48AE
:1008100000685A4908605A48076063480068401CED
:1008200061490860FFF781FFC0465B480068854268
:1008300035D3C046514800680068002801D1012026
:1008400000E00020002804D00020C0435249086086
:1008500024E04A480068C068C4686668B54202D2AD
:100860004D4806601AE0201D00F085FEA06A0028B1
:1008700003D02000183000F07EFE4649E06A096887
:10088000884202D94349E06A08601422E16A514370
:10089000344A8818211D00F047FECBE7C04604E02B
:1008A00042480068401C414908600098F8BC08BCF8
:1008B000184770B50024002601F0B9FA38480068DE
:1008C000401E3749086008000068002876D12D488E
:1008D0000068002872D022E02548C068C468200063
:1008E000183000F048FE201D00F045FE2949E06A5E
:1008F0000968884202D92749E06A08601422E16A3F
:100900005143184A8818211D00F00EFE1E49E06A66
:100910000968C96A884202D3012025490860144841
:100920000068002801D1012000E000200028D3D079
:10093000002C01D0FFF7F9FE1C480568002D0DD0F2
:10094000C046FFF754FF002802D001201849086074
:100950006D1E002DF5D10020144908601448006870
:10096000002828E068000040B8000040CC000040AB
:10097000E0000040F4000040080100404400004056
:1009800048000040140000400C00004020000040DF
:10099000300000401C0000403400004010000040C7
:1009A00040000040180000402C000040240000409F
:1009B0002800004002E001D001F0C8FD01F042FA39
:1009C000300070BC08BC1847F8B505000E00F948A7
:1009D0000768F9480068001D00F0CDFD681C08D1CB
:1009E000002E06D0F4480168091DF44800F09CFD73
:1009F0001AE07C19F04800684460BC4207D2EE4817
:100A00000168091DEE48006800F09AFD0CE0EA4814
:100A10000168091DEB48006800F092FDEA48006893
:100A2000844201D2E8480460F8BC08BC1847E74893
:100A30000068401CE54908607047F3B581B00400C8
:100A400000200090FFF7F3FFDA480668216802985B
:100A50000D182068B04207D92068A8420BD9B542CA
:100A600009D90120009006E02068A84201D8B542CB
:100A700001D90120009025600098002803D0A81B10
:100A80000021FFF7A1FFFFF714FF0700002F01D19E
:100A900001F05CFD0098FEBC08BC184770B504006E
:100AA0000025002C08D0FFF7C2FF00212000FFF72F
:100AB0008BFFFFF7FEFE0500002D01D101F046FD82
:100AC00070BC08BC184770B5040001F0B0F9002CE8
:100AD00002D1B948006800E020000600F56A01F084
:100AE000B1F9280070BC08BC184710B401000023FD
:100AF000002902D1B04C246800E00C002200D06A2A
:100B000010BC7047FEB507000D0000200090042DBA
:100B100000D3032501F08BF9002F02D1A64800680D
:100B200000E038000400E66AAE4243D0B5420BD97B
:100B3000A148006884420DD09F480068C06AA8425E
:100B400008D80120009005E09B480068844201D14C
:100B500001200090E06A0190E562A069C00FC00723
:100B600002D10420401BA061616914220198504306
:100B7000974A8018814201D1012000E0002000281E
:100B800012D0201D00F0F7FC9249E06A0968884203
:100B900002D99049E06A08601422E16A51438C4A04
:100BA0008818211D00F0C0FC0098002801D001F039
:100BB000CDFCC04601F046F9FEBC08BC184783488E
:100BC0000068002803D001208349086027E0002046
:100BD000814908607F48016800E0491E14204843AD
:100BE0007B4A1058002801D1012000E00020002895
:100BF000F3D114224A43764BD018426852684260BF
:100C0000020008324368934202D14268526842604F
:100C10004268D268684B1A606E480160C0467047EF
:100C200070B5050001F003F9002D02D1624800689B
:100C300000E028000400201D00F09DFCA06A0028B0
:100C400003D02000183000F096FC211D5B4800F016
:100C50006BFC002009E021004031095C012903D12F
:100C60000022210040310A54401C0128F3DB01F02E
:100C7000E9F85A480068002805D001F0D8F8FFF7D5
:100C800054FD01F0DFF84C480068844212D153480B
:100C90000068002802D001F059FC0BE047480068CA
:100CA0004F490968884203D100204349086001E0A8
:100CB000FFF785FF70BC08BC184710B40100002086
:100CC0000A003E4C5369A34201D1012300E00023F6
:100CD000002B11D0434C936AA34201D1012300E0C1
:100CE0000023002B08D1936A002B01D1012300E0DF
:100CF0000023002B00D0012010BC704770B5050008
:100D00002C002D480068844225D0002C23D001F00F
:100D10008EF82000FFF7D1FF00281AD0201D00F028
:100D20002AFC2C49E06A0968884202D92949E06A0C
:100D300008601422E16A5143254A8818211D00F0F9
:100D4000F3FB1D49E06A0968C96A884201D301F0D2
:100D5000FDFB01F077F870BC08BC1847F8B505003A
:100D600000262C0000272000FFF7A7FF002840D016
:100D700016480068002837D10F49E06A0968C96A37
:100D8000884203D30126012013490860201D00F08A
:100D9000F2FB1049E06A0968884202D90D49E06A0D
:100DA00008601422E16A5143094A8818211D00F0A5
:100DB000BBFB1EE0180000400C0000400801004092
:100DC0004800004044000040340000404000004023
:100DD000680000401C000040280000402000004047
:100DE00014000040E000004021001831FE4800F0EF
:100DF0009BFB3000F8BC08BC184710B516E001F0AA
:100E000016F8FA48C068C468201D00F0B4FBF84822
:100E10000068401EF6490860F6480068401EF54923
:100E2000086001F00FF82000FFF795FCF14800681A
:100E30000028E4D110BC08BC1847C046FFF7DDFF0E
:100E400001F084FBFAE71CB5EB4800210B005A22A5
:100E500000910190E9A1EB48FFF737FC0400012C59
:100E60000CD101F07DFBA01EE74908600120E74995
:100E700008600020E649086000F0CFFFE548006800
:100E80001CBC08BC184710B501F06AFB0020DF4904
:100E9000086000F0CBFF10BC08BC184710B500F08C
:100EA000C6FFDB48046800F0CDFF200010BC08BC82
:100EB00018470021D64A10687047CD48006870472F
:100EC0000100002902D1D448006800E008000200B7
:100ED00010003430704770B50400FFF7A8FDCF480C
:100EE00000680019CD490860FFF7E3FC0500280001
:100EF00070BC08BC184770B505000C00C6480168F6
:100F00001831280000F01CFB01212000FFF75CFDD8
:100F100070BC08BC184770B506000C001500012015
:100F2000C0072043BC4909688861BB480168183183
:100F3000300000F0F9FA01212800FFF745FD70BCF0
:100F400008BC184770B50600F068C4682000183067
:100F500000F011FBB2480068002813D1201D00F0FA
:100F60000AFBB049E06A0968884202D9AD49E06AE3
:100F700008601422E16A5143AB4A8818211D00F031
:100F8000D3FA04E021001831974800F0CDFAA249C5
:100F9000E06A0968C96A884204D901250120A34989
:100FA000086000E00025280070BC08BC184770B538
:100FB00005000E000120C00730432860EC682800BF
:100FC00000F0D9FA201D00F0D6FA9649E06A0968C7
:100FD000884202D99349E06A08601422E16A5143C9
:100FE000914A8818211D00F09FFA8B49E06A096830
:100FF000C96A884202D901208C49086070BC08BCCB
:10100000184710B5040000F012FF894800682060FE
:101010007F480068606000F015FF10BC08BC1847EE
:101020008349096801607A4909684160704770B571
:1010300006000C0000F0FBFE754802687068131A89
:101040002068401C01D1002519E079493068096801
:10105000884206D07068904203D8012500202060A5
:101060000DE02068984207D92068C01A206030003F
:10107000FFF7D6FF002502E000202060012500F0E8
:10108000E1FE280070BC08BC1847012067490860D1
:1010900070476149096888695F490968C96A04221B
:1010A000511A5D4A126891617047F8B504000F004B
:1010B000160000F0BCFEA100574800683C304058C4
:1010C00000280BD101215448006840300155002E02
:1010D00004D03000FFF778FC01F038FA00F0B2FEDF
:1010E00000F0A5FEA1004C4800683C304558002D9A
:1010F0000ED0002F06D00021A200474800683C30E7
:10110000815005E0681EA200434909683C318850BF
:101110000021414800684030015500F093FE28004E
:10112000F8BC08BC1847FFB581B004000F001D00D3
:1011300000F07DFE384800684030005D022814D081
:10114000A200354909683C3150180168B943016073
:10115000012131480068403001550A98002804D028
:101160000A98FFF731FC01F0F1F900F06BFE00F096
:101170005EFE002D05D0A100274800683C30405895
:101180002860254800684030005D022801D0002614
:1011900009E0A200204909683C315018026803990F
:1011A0008A430260012600211B4800684030015537
:1011B00000F048FE300005B0F0BC08BC1847FFB591
:1011C00083B00D0016001F0001200290039C00F068
:1011D0002EFE0C98002805D0A90020003C30415874
:1011E0000C980160200025E0E0000040F400004081
:1011F00014000040100000403800004049444C45B5
:10120000000000003B0E00003400004020000040C1
:10121000180000403C0000400C000040240000404A
:10122000400000401C0000406800004028000040D2
:101230002C0000404030405D0190022120004030F1
:1012400041553B0001F0A2F90528040E181D2900A4
:10125000A90020003C3040583043AA0021003C3116
:1012600088501BE0A90020003C304058401CAA00D8
:1012700021003C31885011E0A90020003C3046504C
:101280000CE00198022804D0A90020003C30465010
:1012900001E00020029001E000E0C046C046019855
:1012A00001281AD1201D00F066F99149E06A096809
:1012B000884202D98E49E06A08601422E16A5143EB
:1012C0008C4A8818211D00F02FF98B49E06A0968C3
:1012D000C96A884201D901F039F900F0B3FD0298DA
:1012E00007B0F0BC08BC1847FFB583B00D0016006E
:1012F0001F0001200190039C002000900C98002802
:1013000005D0A90020003C3041580C980160200015
:101310004030405D029002212000403041553B00AA
:1013200001F034F90528040E181D2900A900200039
:101330003C3040583043AA0021003C3188501BE02B
:10134000A90020003C304058401CAA0021003C313C
:10135000885011E0A90020003C3046500CE0029873
:10136000022804D0A90020003C30465001E00020B3
:10137000019001E000E0C046C046029801282BD150
:101380005E480068002813D1201D00F0F4F8584989
:10139000E06A0968884202D95549E06A0860142267
:1013A000E16A5143534A8818211D00F0BDF804E05A
:1013B00021001831524800F0B7F84F49E06A096837
:1013C000C96A884208D90D98002802D001210D98D9
:1013D000016001204B490860019807B0F0BC08BCCF
:1013E0001847FEB505000E0017002C0000200090E5
:1013F00020004030805D0190022120004030815566
:10140000B100001F4058401CB20021003C31885000
:101410000198012829D139480068002813D1201DDE
:1014200000F0A9F83249E06A0968884202D93049D7
:10143000E06A08601422E16A51432E4A8818211D8F
:1014400000F072F804E0210018312D4800F06CF82B
:101450002949E06A0968C96A884206D9002F01D083
:1014600001203860012027490860FEBC08BC1847ED
:10147000F8B506000C00002E02D11F48006800E0FD
:101480003000070000F0D3FC38004030005D022837
:1014900005D10021380040300155012500E000252C
:1014A00000F0D0FC2800F8BC08BC1847F8B50600CE
:1014B0000C001700002E02D10F48006800E0300039
:1014C000050000F0B4FCA10028003C30405800901A
:1014D000A10028003C304058B843A20029003C310C
:1014E000885000F0AFFC0098F8BC08BC184700001A
:1014F0001C000040680000400C000040400000401C
:10150000E000004028000040010008314160002157
:10151000C943816001000831C1600161002101609F
:10152000704700210161704742684A6093688B6090
:10153000936859609160086103685B1C03607047A1
:1015400010B402000B685C1C01D1106907E01000A8
:10155000083000E04068446824689C42FAD9446836
:101560004C604C68A160886041600A611468641C2A
:10157000146010BC704701000A694B688868986065
:10158000081D09C858605068884201D188685060B9
:10159000002008611068401E10601068704770B528
:1015A00005000E002C0000F042FC216CE06B48436B
:1015B00021684018A0600020A06320686060E06B94
:1015C000401E216C484321684118E1600021C94355
:1015D0004420015545200155002E0CD120690028DA
:1015E00001D1012000E0002000280CD120001030A3
:1015F000FFF7A8FC07E020001030FFF785FF200070
:101600002430FFF781FF00F01DFC012070BC08BCF6
:101610001847F8B506000D001700069C002D01D1F3
:10162000246000E02760E663256401212000FFF7C5
:10163000B6FFF8BC08BC1847FEB505000E00170041
:1016400028007043029002990800483000F05BFCCB
:101650000400002C0BD00194019C20004830019024
:101660003B00009431002800019AFFF7D2FF2000D0
:10167000FEBC08BC184770B5040000F0D8FB45203C
:10168000055714E0606A002801D1012000E0002025
:10169000002808D120002430FFF754FC002803D094
:1016A000FFF7F3FC00E004E0681E00060516002DBD
:1016B000E8DCC0460021C9434520015500F0C2FBCB
:1016C00000F0B5FB4420055714E02069002801D143
:1016D000012000E0002000280BD120001030FFF78F
:1016E00031FC002801D0FFF7D0FC681E000605166B
:1016F00000E001E0002DE8DCC0460021C9434420A1
:10170000015500F09FFB70BC08BC184770B5050080
:1017100000F08DFBA86BE96B884201D1012400E049
:10172000002400F08FFB200070BC08BC1847F8B5FF
:1017300004000F00150000200090A66B206C00280C
:1017400027D0002D0FD13900226C606800F06AFCB0
:10175000216C606840186060A1686068884218D396
:101760002068606015E03900226CE06800F05AFCE7
:10177000216CE068411AE1602168E068884203D288
:10178000216CA068411AE160022D02D1002E00D028
:10179000761E701CA0630098F8BC08BC1847FFB503
:1017A00083B006001D0000273400C04600F03FFB58
:1017B000A06BE16B884201D3022D1AD12A002000D0
:1017C0000499FFF7B4FF0290606A002801D101205C
:1017D00000E00020002804D120002430FFF7B2FBF5
:1017E00000E0C04600F02EFB012007B0F0BC08BCB2
:1017F00018470598002803D100F024FB0020F4E7E7
:10180000002F03D16846FFF70BFC012700F01AFBFD
:10181000FFF70DF900F00BFB44200157491C00D1E4
:10182000015545200157491C00D1015500F00AFB24
:1018300005A96846FFF7FBFB002819D12000FFF738
:1018400065FF00280ED0200010300599FFF753FBEC
:101850002000FFF710FFFFF72CF80028A6D100F0BA
:1018600075FEA3E72000FFF706FFFFF722F89DE7CC
:101870002000FFF700FFFFF71CF80020B5E7FFB5D9
:1018800085B0050016001F002C0000200390A06BFF
:10189000E16B884201D3022F28D1452001570291E4
:1018A000A06B01903A0020000699FFF740FF0298D4
:1018B000401C12D1606A002801D1012000E0002004
:1018C000002809D120002430FFF73CFB002803D07A
:1018D000002E01D00120306005E00298401C010676
:1018E0000916452001550120049001E000200490D4
:1018F000049809B0F0BC08BC1847FEB505000E00FE
:101900002C0000200290A06B0190E16B01988142B5
:1019100023D94520015700910198401CA0630098ED
:10192000401C12D1606A002801D1012000E0002093
:10193000002810D120002430FFF704FB00280AD033
:10194000002E08D00120306005E00098401C010600
:10195000091645200155012700E000273800FEBC8C
:1019600008BC184770B5050000F061FAA86B0028A4
:1019700001D1012400E0002400F064FA200070BCD2
:1019800008BC184770B504000D00206C00280ED06C
:10199000216CE0684118E160A168E068884201D3E9
:1019A0002168E1602800226CE16800F03BFB70BC1C
:1019B00008BC1847F7B582B0050000272C00C046C8
:1019C00000F035FAA66B002E18D020000399FFF71F
:1019D000D9FF701EA0632069002801D1012000E01A
:1019E0000020002803D120001030FFF7ABFA00F0F0
:1019F00029FA012005B0F0BC08BC1847049800285B
:101A000003D100F01FFA0020F4E7002F03D168464D
:101A1000FFF706FB012700F015FAFFF708F800F0C2
:101A200006FA44200157491C00D1015545200157B1
:101A3000491C00D1015500F005FA04A96846FFF7DA
:101A4000F6FA002819D12000FFF78CFF00280ED0ED
:101A5000200024300499FFF74EFA2000FFF70BFE18
:101A6000FEF727FF0028ABD100F070FDA8E72000AB
:101A7000FFF701FEFEF71DFFA2E72000FFF7FBFDC9
:101A8000FEF717FF2000FFF76DFF002898D0002019
:101A9000B0E7F3B583B0050000272C00C04600F086
:101AA000C6F9A66B002E14D0701EA0632069002812
:101AB00001D1012000E00020002803D120001030D7
:101AC000FFF740FA00F0BEF9012005B0F0BC08BCF9
:101AD00018470498002803D100F0B4F90020F4E777
:101AE000002F03D101A8FFF79BFA012700F0AAF904
:101AF000FEF79DFF00F09BF944200157491C00D1DF
:101B0000015545200157491C00D1015500F09AF9B3
:101B100004A901A8FFF78BFA002819D12000FFF7CC
:101B200021FF00280ED0200024300499FFF7E3F9AC
:101B30002000FFF7A0FDFEF7BCFE0028AFD100F0AB
:101B400005FDACE72000FFF796FDFEF7B2FEA6E725
:101B50002000FFF790FDFEF7ACFE2000FFF702FF2C
:101B600000289CD00020B0E7F7B584B0050000271E
:101B70002C00C04600F05BF9A06B01900198002892
:101B800018D0E66820000599FFF7FCFEE660606A61
:101B9000002801D1012000E00020002803D120000E
:101BA0002430FFF7CFF900F04DF9012007B0F0BC69
:101BB00008BC18470698002803D100F043F900201C
:101BC000F4E7002F03D102A8FFF72AFA012700F05B
:101BD00039F9FEF72CFF00F02AF944200157491C7F
:101BE00000D1015545200157491C00D1015500F095
:101BF00029F906A902A8FFF71AFA002819D120002E
:101C0000FFF7B0FE00280ED0200024300699FFF721
:101C100072F92000FFF72FFDFEF74BFE0028A9D137
:101C200000F094FCA6E72000FFF725FDFEF741FE3B
:101C3000A0E72000FFF71FFDFEF73BFE2000FFF7A7
:101C400091FE002896D00020B0E7F7B584B00500DB
:101C500016002C0000200390A06B02900298002830
:101C600027D044200157019120000599FFF78AFEF3
:101C70000298401EA0630198401C12D120690028E0
:101C800001D1012000E00020002810D120001030F8
:101C9000FFF758F900280AD0002E08D00120306044
:101CA00005E00198401C0106091644200155012752
:101CB00000E00027380007B0F0BC08BC1847F3B5B7
:101CC00081B005002C0000200090A06B002807D0F8
:101CD000E76820000299FFF755FEE760012600E063
:101CE00000263000FEBC08BC184770B5040000F0A8
:101CF0009EF8A56B00F0A6F8280070BC08BC184739
:101D000070B50400250000F092F8A96BE86B461A44
:101D100000F098F8300070BC08BC184701000A00B9
:101D2000906B704770B504002500280000F04BF957
:101D300070BC08BC184701000A00936B002B01D14E
:101D4000012000E00020704710B401000A00936BEE
:101D5000D46BA34201D1012000E0002010BC7047E9
:101D600030B40300001F0C1D0460001F3F4C0460D2
:101D7000001F0360001F3E4C0460001F3D4C0460C8
:101D8000001F3D4C0460001F3C4C0460001F3C4C95
:101D90000460001F3B4C0460001F3B4C0460001FAC
:101DA0003A4C0460001F3A4C0460001F394C046038
:101DB000001F394C0460001F64100460001F0260A3
:101DC000001F1F240460CC07E40F03D02025046803
:101DD0002C430460001F0024046030BC70470021C5
:101DE0002E4AD1602E48110088610321516151149F
:101DF000C968102291432B4AD16011000969102251
:101E00001143284A11612849284A11602421284A8F
:101E100011600121214A5160704710B5FFF7DFFFC3
:101E200000F0C0FA002010BC08BC1847704710B57D
:101E300000F096FB1F480068401C1E49086010BC5B
:101E400008BC184710B51B48006800280AD019487C
:101E50000068401E1749086008000068002801D18A
:101E600000F08AFB10BC08BC18470000AAAAAAAA66
:101E70001212121211111111101010100909090972
:101E800008080808070707070606060605050505EA
:101E9000040404040303030302020202004000E0FE
:101EA000983A000000F0FFFFB81E000000F1FFFFAD
:101EB00000F2FFFF4C0000400F502DE9A40100EBA1
:101EC0000100A0E310109FE5000081E50000A0E301
:101ED000D00F00E50F50BDE804F05EE2004000E0E6
:101EE0004A4AD008C0004A4A10600022484B5A6053
:101EF000484A494B5A6000221A600100454A4A602C
:101F00001A000A607047F8B5040000200090FEF740
:101F10008EFD42480068002804D1FFF7E1FF012050
:101F20003E490860002C12D020000830A0420ED993
:101F300008346007400F0821081A0019A04204D98C
:101F40006007400F081A041902E0002400E0002492
:101F5000002C32D03248006884422ED82C4F3800F2
:101F6000056801E02F002D686868A04202D2286849
:101F70000028F7D1284885421FD0386808300090E3
:101F8000286838606868001B102810D92E19686806
:101F9000001B70606C6071681D4800E0006802689A
:101FA00052688A42FAD3026832600660C0461C4911
:101FB00068680968081A1A490860FEF77AFC0098F0
:101FC000F8BC08BC184770B506003500002E16D0C6
:101FD000083D2C00FEF72BFD61680D4800E000680D
:101FE000026852688A42FAD30268226004600C498F
:101FF0006068096840180A490860FEF75AFC70BC1E
:1020000008BC184706480068704770472401004024
:1020100058000040F81700006000004054000040E5
:10202000500000407847C046030052E32A00009A5F
:1020300003C010E20800000A0130D1E402005CE3B2
:102040000C2082E001C0D1940130C0E40130D134D1
:1020500001C0C094042042E20130C034033011E2D8
:102060002600000A042052E21B00003A03C031E7B8
:10207000020053E30800000A0F00008A2C34A0E19C
:1020800004C0B1E5042052E20C3C83E1043080E45A
:10209000F9FFFF2A011081E20F0000EA2C38A0E1CD
:1020A00004C0B1E5042052E20C3883E1043080E43E
:1020B000F9FFFF2A021081E2070000EA2C3CA0E1B0
:1020C00004C0B1E5042052E20C3483E1043080E422
:1020D000F9FFFF2A031081E20000A0E1822FB0E1A6
:1020E0000130D12401C0D1240120D1440130C024C9
:1020F00001C0C0240120C0441EFF2FE17847C04624
:1021000010402DE9202052E20500003A1850B1E8B5
:10211000202052E21850A0E81850B1E81850A0E86A
:10212000F9FFFF2A02CEB0E11850B1281850A028BC
:102130001800B1481800A0481040BDE802CFB0E137
:1021400004309124043080241EFF2F01822FB0E13F
:10215000B230D1200120D144B230C0200120C0448F
:102160001EFF2FE1013090E12100004A0020B0E382
:10217000A03071E01A00003A203271E00F00003AFE
:10218000203471E00100003A00C0A0E3200000EA22
:10219000A03371E0810340200220B2E0203371E0DF
:1021A000010340200220B2E0A03271E08102402011
:1021B0000220B2E0203271E0010240200220B2E0B1
:1021C000A03171E0810140200220B2E0203171E0B5
:1021D000010140200220B2E0A03071E081004020E7
:1021E0000220B2E0011050E00010A0310200A2E095
:1021F0001EFF2FE1022111E20010614240C032E0D7
:1022000000006022203271E01D00003A203471E0AD
:102210000F00003A0113A0E1203471E03F2382E374
:102220000B00003A0113A0E1203471E03F2682E365
:102230000700003A0113A0E1203471E03F2982E356
:102240000113A0213F2C8223003071E21D00002ADF
:102250002113A021A03371E0810340200220B2E0CD
:10226000203371E0010340200220B2E0A03271E08F
:10227000810240200220B2E0203271E001024020C1
:102280000220B2E0A03171E0810140200220B2E0E2
:10229000203171E0010140200220B2E0EBFFFF2A73
:1022A000A03071E0810040200220B2E0011050E037
:1022B0000010A0310200A2E0CCCFB0E100006042EB
:1022C000001061221EFF2FE1CCCFB0E10000604280
:1022D00001402DE90000B0E30000A0E10240BDE8AC
:1022E0001EFF2FE170477047704700000E50A0E1BD
:1022F000180000EB05E0A0E10050B0E10D10A0E1F6
:102300000A30A0E10700C0E300D0A0E160D08DE278
:1023100020402DE9BDF7FFEB2040BDE80060A0E3C1
:102320000070A0E30080A0E300B0A0E30710C1E3C9
:1023300005C0A0E1C009ACE8C009ACE8C009ACE840
:10234000C009ACE801D0A0E11EFF2FE10400C046A7
:10235000C0462000FDF752FF00009FE51EFF2FE161
:102360001C19004001C08FE21CFF2FE10149182019
:10237000ABDFFEE7260002001EFF2FE17847C046D4
:102380000020B0E3203171E092FFFF3AA03271E00B
:1023900087FFFF3A203471E07CFFFF3A00C0A0E3E2
:1023A0009BFFFFEA7847C0466C019FE5000090E57F
:1023B00000E090E564019FE50200BEE8001080E5C2
:1023C0000100BEE800F06FE1FF7FDEE80000A0E161
:1023D0003CE09EE504F05EE2000000EF1EFF2FE10E
:1023E00004E08EE201002DE900204DE90000A0E1AB
:1023F00004D04DE20100BDE8004020E900E0A0E18A
:102400000100BDE8FF7F4EE90000A0E13CE04EE2A4
:1024100000004FE101002EE900019FE5000090E57A
:1024200001002EE9F0009FE5001090E500E081E555
:10243000EC009FE50FE0A0E110FF2FE1D8009FE541
:10244000000090E500E090E5D0009FE50200BEE8C6
:10245000001080E50100BEE800F06FE1FF7FDEE8DC
:102460000000A0E13CE09EE504F05EE201002DE901
:1024700000204DE90000A0E104D04DE20100BDE8DC
:10248000004020E900E0A0E10100BDE8FF7F4EE947
:102490000000A0E13CE04EE200004FE101002EE927
:1024A00078009FE5000090E501002EE968009FE5B7
:1024B000001090E500E081E568009FE50FE0A0E1F5
:1024C00010FF2FE1000050E30200000A50009FE5DA
:1024D0000FE0A0E110FF2FE10100A0E348109FE50D
:1024E000000081E544009FE5000080E528009FE5AD
:1024F000000090E500E090E520009FE50200BEE8C6
:10250000001080E50100BEE800F06FE1FF7FDEE82B
:102510000000A0E13CE09EE504F05EE20C0000401B
:102520004C000040BF0B0000EF070000004000E03F
:1025300030F0FFFF00C09FE51CFF2FE17F18000077
:1025400000C09FE51CFF2FE14B1C00007847C046F0
:10255000A0FFFFEA00C09FE51CFF2FE1EF0700008E
:102560007847C04600000FE1801080E301F021E1D0
:10257000800000E21EFF2FE17847C04600000FE117
:102580008000C0E300F021E11EFF2FE17847C04644
:1025900001C05EE50C0053E10100003A0C30DEE7BB
:1025A000000000EA0330DEE783C08EE01CFF2FE16D
:1025B000303132333435363738390A000000000004
:1025C00000000000E425000000000040680000005A
:1025D000480100004C26000068000040381F000041
:1025E000700100000000000000000000000000007A
:1025F00000000000000000000000000000000000DB
:1026000000000000000000000000000000000000CA
:1026100000000000000000000000000000000000BA
:1026200003000000000000000000000000000000A7
:102630000F270000F8170000000000000000000055
:0C2640000000000000000000000000008E
:0400000500000104F2
:00000001FF
